:020000041000EA
:10100000500500201D100010000000009D10001071
:101010000018040000010000000000801149124A7D
:10102000124B00F018F8124880471249124A134B2D
:1010300000F011F81249134A134B00F00CF8134951
:10104000134A0020521A02DD043A8850FCDC114891
:101050008047114880479B1A03DD043BC858D05095
:10106000FBDC7047781600100C00002050010020B7
:10107000A1100010BC1700105005002050050020E2
:10108000BC1700105005002050050020500500201E
:10109000580500201D16001021150010FEE7000065
:1010A00080B500AF00F004F800F00EF8BD4680BD3A
:1010B00080B500AF034B034A926E01218A439A66C2
:1010C000BD4680BD0000014080B500AF134BC0227B
:1010D0005A62134A12499023CB5A9BB230210B43D8
:1010E00099B29023D1520F4B0E4AD2690E490A4051
:1010F000DA610B4A0A498C23CB5A9BB203210B437A
:1011000099B28C23D152074B084A1A60034BC32271
:101110005A6200F00DF8BD4680BDC0460000014097
:101120000010014000030140FFFDFFFF0001F13FFF
:1011300080B500AF2A4B1A68FF231B0213401A0A1E
:10114000284B1A60274B1B68002B37D0244B1B6899
:10115000FF221A40244B1A60214BDB690322134003
:101160001A02214B1B681A431F4B1A601C4BDA6989
:1011700080239B0013400ED11A4B1B689A021A4B16
:101180001B68D3181948191C00F022F9031C1A0116
:10119000174B1A6021E000F02FF8031C9901114B46
:1011A0001B689A02104B1B68D318081C191C00F00E
:1011B0000FF9031C1A010E4B1A600EE0084BDA6996
:1011C00080239B00134003D1094B0A4A1A6004E0B4
:1011D00000F012F8021C064B1A60BD4680BDC046E6
:1011E00000030140500500205405002000001BB7FB
:1011F000FC3F0020006CDC0280B500AF014B181CE6
:10120000BD4680BD002D310190B585B000AFF860BE
:101210007A600B23FB180A1C1A700B23FB181B782F
:101220009B08DBB2181C0B23FB181B789B08DBB256
:101230001A1CFB6804329200D3580B22BA18127899
:1012400003210A40D200111CFC228A40D2431A40DA
:10125000111CFB68021D9200D150FB685B6F0B22D2
:10126000BA1812785200111C03228A40D2431A4045
:10127000FB685A670B23FB181B78DB08DBB2181CD2
:101280000B23FB181B78DB08DBB21A1CFB6810323F
:101290009200D3580B22BA18127807210A40920004
:1012A000111C04228A40D2431A40111CFB68021C04
:1012B00010329200D1500B23FB181B78DB08DBB2F5
:1012C000181C0B23FB181B78DB08DBB21A1CFB680D
:1012D00010329200D2587B685B781C1C0B23FB18E1
:1012E0001B7807210B409B009C40231C1A43111CB8
:1012F000FB68021C10329200D150FB68204A9342D6
:101300000BD1FB681B6E0B22BA1812780121914099
:101310000A1CD2431A40FB681A667B681B78DBB252
:101320005BB2002B07DA7B685A680B23FB181B782B
:101330009A40FB685A600B23FB181B789B08DBB2B2
:10134000181C0B23FB181B789B08DBB21A1CFB68CC
:1013500004329200D2587B681B781C1C0B23FB18AC
:101360001B7803210B40DB009C40231C1A43111CFB
:10137000FB68021D9200D150BD4605B090BDC0462D
:101380000002044080B582B000AF7860081C111CD8
:10139000FB1C021C1A70BB1C0A1C1A707B685B6F5A
:1013A000FA1C12785200111C03228A40D2431A40C0
:1013B0007B685A677B685A6FBB1C1B78F91C0978DD
:1013C00049008B401A437B685A67BD4602B080BD16
:1013D00080B588B000AF78603960EFF310837B612F
:1013E0007B693B6172B63B69FB610C4B04225A631B
:1013F0000A4B7A681A62094B3A685A62074B9B6A31
:10140000BB61FB69FB60FB68BB60BB6883F3108852
:10141000BB69181CBD4608B080BDC0460000034033
:1014200080B500AFBD4680BD80B582B000AF7860AA
:101430007B6819687B681A7B7B680433081C111C65
:101440001A1CFFF7E1FE7B6819687B681A7B7B68D2
:101450005B7B081C111C1A1CFFF794FF0023181C4F
:10146000BD4602B080BDC04690B583B000AFFB1D45
:1014700000221A70FB1D1B78002B06D1FC1D064BA9
:10148000181CFFF7D1FF031C2370FB1D1B78181CD1
:10149000BD4603B090BDC0466816001080B582B04E
:1014A00000AF78600A1CFB1C1A70FB1C1B78012221
:1014B0009A407B685A60BD4602B080BD80B582B05C
:1014C00000AF78600A1CFB1C1A70FB1C1B78802282
:1014D00052029A407B685A60BD4602B080BDC04649
:1014E00080B582B000AF78607B681A687B681B7B30
:1014F000101C191CFFF7D2FFBD4602B080BDC046CC
:1015000080B582B000AF78607B681A687B681B7B0F
:10151000101C191CFFF7D2FFBD4602B080BDC046AB
:1015200090B58DB000AFFC1DFFF79EFF031C23702C
:10153000FB1D1B78002B00D0FEE7364B181CFFF775
:10154000DFFF0023FB6202E0FB6A0133FB62FB6A00
:10155000314A9342F8D90023BB6202E0BB6A0133EF
:10156000BB62BB6A2C4A9342F8D900237B6202E03B
:101570007B6A01337B627B6A274A9342F8D9002356
:101580003B6202E03B6A01333B623B6A224A934280
:10159000F8D90023FB6102E0FB690133FB61FB69C1
:1015A0001D4A9342F8D91B4B181CFFF799FF0023E3
:1015B000BB6102E0BB690133BB61BB69164A934260
:1015C000F8D900237B6102E07B6901337B617B6991
:1015D000114A9342F8D900233B6102E03B69013391
:1015E0003B613B690C4A9342F8D90023FB6002E05F
:1015F000FB680133FB60FB68074A9342F8D900237C
:10160000BB6002E0BB680133BB60BB68024A934227
:10161000F8D992E768160010FEFF00000E4B70B577
:1016200000251E1C0D4CE41AA410A54204D0AB00EA
:10163000F35898470135F8E7FFF7F2FE084B00250D
:101640001E1C084CE41AA410A54204D0AB00F358A9
:1016500098470135F8E770BD50050020500500207F
:1016600050050020500500200004044080000000C8
:08167000000001000000000071
:101678002C480047000000000000000000000000A7
:101688000000000000000000000000000000000052
:1016980025480047000000000000000023480047DC
:1016A800234800472348004723480047234800476A
:1016B800234800472348004723480047234800475A
:1016C800234800472348004723480047234800474A
:1016D800234800472348004723480047234800473A
:1016E800234800472348004723480047234800472A
:1016F800234800472348004723480047234800471A
:101708002348004723480047234800472348004709
:1017180023480047234800472348004723480047F9
:10172800234800479D1000109D1000109D100010C8
:101738009D1000109D1000109D1000109D100010AD
:101748009D1000109D1000109D1000109D1000109D
:101758009D1000109D1000109D1000109D1000108D
:101768009D1000109D1000109D1000109D1000107D
:101778009D1000109D1000109D1000109D1000106D
:101788009D1000109D1000109D1000109D1000105D
:101798009D1000109D1000109D1000109D1000104D
:1017A8009D1000109D1000109D1000109D1000103D
:0417B8009D10001070
:040000051000101DBA
:00000001FF
